{
  "_format": "hh-sol-artifact-1",
  "contractName": "VoteSystem",
  "sourceName": "contracts/VoteSystem.sol",
  "abi": [
    {
      "inputs": [
        {
          "internalType": "address",
          "name": "initialOwner",
          "type": "address"
        }
      ],
      "stateMutability": "nonpayable",
      "type": "constructor"
    },
    {
      "inputs": [
        {
          "internalType": "address",
          "name": "sender",
          "type": "address"
        },
        {
          "internalType": "uint256",
          "name": "tokenId",
          "type": "uint256"
        },
        {
          "internalType": "address",
          "name": "owner",
          "type": "address"
        }
      ],
      "name": "ERC721IncorrectOwner",
      "type": "error"
    },
    {
      "inputs": [
        {
          "internalType": "address",
          "name": "operator",
          "type": "address"
        },
        {
          "internalType": "uint256",
          "name": "tokenId",
          "type": "uint256"
        }
      ],
      "name": "ERC721InsufficientApproval",
      "type": "error"
    },
    {
      "inputs": [
        {
          "internalType": "address",
          "name": "approver",
          "type": "address"
        }
      ],
      "name": "ERC721InvalidApprover",
      "type": "error"
    },
    {
      "inputs": [
        {
          "internalType": "address",
          "name": "operator",
          "type": "address"
        }
      ],
      "name": "ERC721InvalidOperator",
      "type": "error"
    },
    {
      "inputs": [
        {
          "internalType": "address",
          "name": "owner",
          "type": "address"
        }
      ],
      "name": "ERC721InvalidOwner",
      "type": "error"
    },
    {
      "inputs": [
        {
          "internalType": "address",
          "name": "receiver",
          "type": "address"
        }
      ],
      "name": "ERC721InvalidReceiver",
      "type": "error"
    },
    {
      "inputs": [
        {
          "internalType": "address",
          "name": "sender",
          "type": "address"
        }
      ],
      "name": "ERC721InvalidSender",
      "type": "error"
    },
    {
      "inputs": [
        {
          "internalType": "uint256",
          "name": "tokenId",
          "type": "uint256"
        }
      ],
      "name": "ERC721NonexistentToken",
      "type": "error"
    },
    {
      "inputs": [
        {
          "internalType": "address",
          "name": "owner",
          "type": "address"
        }
      ],
      "name": "OwnableInvalidOwner",
      "type": "error"
    },
    {
      "inputs": [
        {
          "internalType": "address",
          "name": "account",
          "type": "address"
        }
      ],
      "name": "OwnableUnauthorizedAccount",
      "type": "error"
    },
    {
      "anonymous": false,
      "inputs": [
        {
          "indexed": true,
          "internalType": "address",
          "name": "owner",
          "type": "address"
        },
        {
          "indexed": true,
          "internalType": "address",
          "name": "approved",
          "type": "address"
        },
        {
          "indexed": true,
          "internalType": "uint256",
          "name": "tokenId",
          "type": "uint256"
        }
      ],
      "name": "Approval",
      "type": "event"
    },
    {
      "anonymous": false,
      "inputs": [
        {
          "indexed": true,
          "internalType": "address",
          "name": "owner",
          "type": "address"
        },
        {
          "indexed": true,
          "internalType": "address",
          "name": "operator",
          "type": "address"
        },
        {
          "indexed": false,
          "internalType": "bool",
          "name": "approved",
          "type": "bool"
        }
      ],
      "name": "ApprovalForAll",
      "type": "event"
    },
    {
      "anonymous": false,
      "inputs": [
        {
          "indexed": false,
          "internalType": "uint256",
          "name": "_fromTokenId",
          "type": "uint256"
        },
        {
          "indexed": false,
          "internalType": "uint256",
          "name": "_toTokenId",
          "type": "uint256"
        }
      ],
      "name": "BatchMetadataUpdate",
      "type": "event"
    },
    {
      "anonymous": false,
      "inputs": [
        {
          "indexed": true,
          "internalType": "uint256",
          "name": "candidateId",
          "type": "uint256"
        },
        {
          "indexed": true,
          "internalType": "address",
          "name": "candidateAddress",
          "type": "address"
        }
      ],
      "name": "CandidateAdded",
      "type": "event"
    },
    {
      "anonymous": false,
      "inputs": [
        {
          "indexed": false,
          "internalType": "uint256",
          "name": "_tokenId",
          "type": "uint256"
        }
      ],
      "name": "MetadataUpdate",
      "type": "event"
    },
    {
      "anonymous": false,
      "inputs": [
        {
          "indexed": true,
          "internalType": "address",
          "name": "previousOwner",
          "type": "address"
        },
        {
          "indexed": true,
          "internalType": "address",
          "name": "newOwner",
          "type": "address"
        }
      ],
      "name": "OwnershipTransferred",
      "type": "event"
    },
    {
      "anonymous": false,
      "inputs": [
        {
          "indexed": true,
          "internalType": "address",
          "name": "from",
          "type": "address"
        },
        {
          "indexed": true,
          "internalType": "address",
          "name": "to",
          "type": "address"
        },
        {
          "indexed": true,
          "internalType": "uint256",
          "name": "tokenId",
          "type": "uint256"
        }
      ],
      "name": "Transfer",
      "type": "event"
    },
    {
      "anonymous": false,
      "inputs": [
        {
          "indexed": true,
          "internalType": "address",
          "name": "voter",
          "type": "address"
        },
        {
          "indexed": true,
          "internalType": "uint256",
          "name": "candidateId",
          "type": "uint256"
        }
      ],
      "name": "VoteCasted",
      "type": "event"
    },
    {
      "inputs": [
        {
          "internalType": "address",
          "name": "candidate",
          "type": "address"
        }
      ],
      "name": "addCandidate",
      "outputs": [],
      "stateMutability": "nonpayable",
      "type": "function"
    },
    {
      "inputs": [
        {
          "internalType": "address",
          "name": "to",
          "type": "address"
        },
        {
          "internalType": "uint256",
          "name": "tokenId",
          "type": "uint256"
        }
      ],
      "name": "approve",
      "outputs": [],
      "stateMutability": "nonpayable",
      "type": "function"
    },
    {
      "inputs": [
        {
          "internalType": "address",
          "name": "owner",
          "type": "address"
        }
      ],
      "name": "balanceOf",
      "outputs": [
        {
          "internalType": "uint256",
          "name": "",
          "type": "uint256"
        }
      ],
      "stateMutability": "view",
      "type": "function"
    },
    {
      "inputs": [],
      "name": "candidateCount",
      "outputs": [
        {
          "internalType": "uint256",
          "name": "",
          "type": "uint256"
        }
      ],
      "stateMutability": "view",
      "type": "function"
    },
    {
      "inputs": [
        {
          "internalType": "address",
          "name": "",
          "type": "address"
        }
      ],
      "name": "candidates",
      "outputs": [
        {
          "internalType": "uint256",
          "name": "",
          "type": "uint256"
        }
      ],
      "stateMutability": "view",
      "type": "function"
    },
    {
      "inputs": [
        {
          "internalType": "address",
          "name": "candidate",
          "type": "address"
        },
        {
          "internalType": "bytes32",
          "name": "electoralVoteEncoded",
          "type": "bytes32"
        }
      ],
      "name": "castVote",
      "outputs": [],
      "stateMutability": "nonpayable",
      "type": "function"
    },
    {
      "inputs": [
        {
          "internalType": "uint256",
          "name": "tokenId",
          "type": "uint256"
        }
      ],
      "name": "getApproved",
      "outputs": [
        {
          "internalType": "address",
          "name": "",
          "type": "address"
        }
      ],
      "stateMutability": "view",
      "type": "function"
    },
    {
      "inputs": [
        {
          "internalType": "address",
          "name": "candidate",
          "type": "address"
        },
        {
          "internalType": "bytes32",
          "name": "electoralVoteEncoded",
          "type": "bytes32"
        }
      ],
      "name": "hasVoted",
      "outputs": [
        {
          "internalType": "bool",
          "name": "",
          "type": "bool"
        }
      ],
      "stateMutability": "view",
      "type": "function"
    },
    {
      "inputs": [
        {
          "internalType": "address",
          "name": "owner",
          "type": "address"
        },
        {
          "internalType": "address",
          "name": "operator",
          "type": "address"
        }
      ],
      "name": "isApprovedForAll",
      "outputs": [
        {
          "internalType": "bool",
          "name": "",
          "type": "bool"
        }
      ],
      "stateMutability": "view",
      "type": "function"
    },
    {
      "inputs": [],
      "name": "name",
      "outputs": [
        {
          "internalType": "string",
          "name": "",
          "type": "string"
        }
      ],
      "stateMutability": "view",
      "type": "function"
    },
    {
      "inputs": [],
      "name": "owner",
      "outputs": [
        {
          "internalType": "address",
          "name": "",
          "type": "address"
        }
      ],
      "stateMutability": "view",
      "type": "function"
    },
    {
      "inputs": [
        {
          "internalType": "uint256",
          "name": "tokenId",
          "type": "uint256"
        }
      ],
      "name": "ownerOf",
      "outputs": [
        {
          "internalType": "address",
          "name": "",
          "type": "address"
        }
      ],
      "stateMutability": "view",
      "type": "function"
    },
    {
      "inputs": [],
      "name": "renounceOwnership",
      "outputs": [],
      "stateMutability": "nonpayable",
      "type": "function"
    },
    {
      "inputs": [
        {
          "internalType": "address",
          "name": "to",
          "type": "address"
        }
      ],
      "name": "safeMint",
      "outputs": [],
      "stateMutability": "nonpayable",
      "type": "function"
    },
    {
      "inputs": [
        {
          "internalType": "address",
          "name": "to",
          "type": "address"
        },
        {
          "internalType": "string",
          "name": "uri",
          "type": "string"
        }
      ],
      "name": "safeMint",
      "outputs": [],
      "stateMutability": "nonpayable",
      "type": "function"
    },
    {
      "inputs": [
        {
          "internalType": "address",
          "name": "from",
          "type": "address"
        },
        {
          "internalType": "address",
          "name": "to",
          "type": "address"
        },
        {
          "internalType": "uint256",
          "name": "tokenId",
          "type": "uint256"
        }
      ],
      "name": "safeTransferFrom",
      "outputs": [],
      "stateMutability": "nonpayable",
      "type": "function"
    },
    {
      "inputs": [
        {
          "internalType": "address",
          "name": "from",
          "type": "address"
        },
        {
          "internalType": "address",
          "name": "to",
          "type": "address"
        },
        {
          "internalType": "uint256",
          "name": "tokenId",
          "type": "uint256"
        },
        {
          "internalType": "bytes",
          "name": "data",
          "type": "bytes"
        }
      ],
      "name": "safeTransferFrom",
      "outputs": [],
      "stateMutability": "nonpayable",
      "type": "function"
    },
    {
      "inputs": [
        {
          "internalType": "address",
          "name": "operator",
          "type": "address"
        },
        {
          "internalType": "bool",
          "name": "approved",
          "type": "bool"
        }
      ],
      "name": "setApprovalForAll",
      "outputs": [],
      "stateMutability": "nonpayable",
      "type": "function"
    },
    {
      "inputs": [
        {
          "internalType": "bytes4",
          "name": "interfaceId",
          "type": "bytes4"
        }
      ],
      "name": "supportsInterface",
      "outputs": [
        {
          "internalType": "bool",
          "name": "",
          "type": "bool"
        }
      ],
      "stateMutability": "view",
      "type": "function"
    },
    {
      "inputs": [],
      "name": "symbol",
      "outputs": [
        {
          "internalType": "string",
          "name": "",
          "type": "string"
        }
      ],
      "stateMutability": "view",
      "type": "function"
    },
    {
      "inputs": [
        {
          "internalType": "uint256",
          "name": "tokenId",
          "type": "uint256"
        }
      ],
      "name": "tokenURI",
      "outputs": [
        {
          "internalType": "string",
          "name": "",
          "type": "string"
        }
      ],
      "stateMutability": "view",
      "type": "function"
    },
    {
      "inputs": [
        {
          "internalType": "address",
          "name": "from",
          "type": "address"
        },
        {
          "internalType": "address",
          "name": "to",
          "type": "address"
        },
        {
          "internalType": "uint256",
          "name": "tokenId",
          "type": "uint256"
        }
      ],
      "name": "transferFrom",
      "outputs": [],
      "stateMutability": "nonpayable",
      "type": "function"
    },
    {
      "inputs": [
        {
          "internalType": "address",
          "name": "newOwner",
          "type": "address"
        }
      ],
      "name": "transferOwnership",
      "outputs": [],
      "stateMutability": "nonpayable",
      "type": "function"
    }
  ],
  "bytecode": "0x60806040523480156200001157600080fd5b506040516200346538038062003465833981810160405281019062000037919062000288565b806040518060400160405280600881526020017f566f7465734d65780000000000000000000000000000000000000000000000008152506040518060400160405280600381526020017f56545800000000000000000000000000000000000000000000000000000000008152508160009081620000b5919062000534565b508060019081620000c7919062000534565b505050600073ffffffffffffffffffffffffffffffffffffffff168173ffffffffffffffffffffffffffffffffffffffff16036200013f5760006040517f1e4fbdf70000000000000000000000000000000000000000000000000000000081526004016200013691906200062c565b60405180910390fd5b62000150816200015860201b60201c565b505062000649565b6000600660009054906101000a900473ffffffffffffffffffffffffffffffffffffffff16905081600660006101000a81548173ffffffffffffffffffffffffffffffffffffffff021916908373ffffffffffffffffffffffffffffffffffffffff1602179055508173ffffffffffffffffffffffffffffffffffffffff168173ffffffffffffffffffffffffffffffffffffffff167f8be0079c531659141344cd1fd0a4f28419497f9722a3daafe3b4186f6b6457e060405160405180910390a35050565b600080fd5b600073ffffffffffffffffffffffffffffffffffffffff82169050919050565b6000620002508262000223565b9050919050565b620002628162000243565b81146200026e57600080fd5b50565b600081519050620002828162000257565b92915050565b600060208284031215620002a157620002a06200021e565b5b6000620002b18482850162000271565b91505092915050565b600081519050919050565b7f4e487b7100000000000000000000000000000000000000000000000000000000600052604160045260246000fd5b7f4e487b7100000000000000000000000000000000000000000000000000000000600052602260045260246000fd5b600060028204905060018216806200033c57607f821691505b602082108103620003525762000351620002f4565b5b50919050565b60008190508160005260206000209050919050565b60006020601f8301049050919050565b600082821b905092915050565b600060088302620003bc7fffffffffffffffffffffffffffffffffffffffffffffffffffffffffffffffff826200037d565b620003c886836200037d565b95508019841693508086168417925050509392505050565b6000819050919050565b6000819050919050565b6000620004156200040f6200040984620003e0565b620003ea565b620003e0565b9050919050565b6000819050919050565b6200043183620003f4565b6200044962000440826200041c565b8484546200038a565b825550505050565b600090565b6200046062000451565b6200046d81848462000426565b505050565b5b8181101562000495576200048960008262000456565b60018101905062000473565b5050565b601f821115620004e457620004ae8162000358565b620004b9846200036d565b81016020851015620004c9578190505b620004e1620004d8856200036d565b83018262000472565b50505b505050565b600082821c905092915050565b60006200050960001984600802620004e9565b1980831691505092915050565b6000620005248383620004f6565b9150826002028217905092915050565b6200053f82620002ba565b67ffffffffffffffff8111156200055b576200055a620002c5565b5b62000567825462000323565b6200057482828562000499565b600060209050601f831160018114620005ac576000841562000597578287015190505b620005a3858262000516565b86555062000613565b601f198416620005bc8662000358565b60005b82811015620005e657848901518255600182019150602085019450602081019050620005bf565b8683101562000606578489015162000602601f891682620004f6565b8355505b6001600288020188555050505b505050505050565b620006268162000243565b82525050565b60006020820190506200064360008301846200061b565b92915050565b612e0c80620006596000396000f3fe608060405234801561001057600080fd5b506004361061014d5760003560e01c8063715018a6116100c3578063b88d4fde1161007c578063b88d4fde1461039c578063c87b56dd146103b8578063cdbb773c146103e8578063d204c45e14610404578063e985e9c514610420578063f2fde38b146104505761014d565b8063715018a6146102ec5780638ab66a90146102f65780638da5cb5b1461032657806395d89b4114610344578063a22cb46514610362578063a9a981a31461037e5761014d565b80633acd75f8116101155780633acd75f81461020857806340d097c31461022457806342842e0e146102405780634a1dc5cc1461025c5780636352211e1461028c57806370a08231146102bc5761014d565b806301ffc9a71461015257806306fdde0314610182578063081812fc146101a0578063095ea7b3146101d057806323b872dd146101ec575b600080fd5b61016c60048036038101906101679190612004565b61046c565b604051610179919061204c565b60405180910390f35b61018a61047e565b60405161019791906120f7565b60405180910390f35b6101ba60048036038101906101b5919061214f565b610510565b6040516101c791906121bd565b60405180910390f35b6101ea60048036038101906101e59190612204565b61052c565b005b61020660048036038101906102019190612244565b610542565b005b610222600480360381019061021d9190612297565b610644565b005b61023e60048036038101906102399190612297565b610775565b005b61025a60048036038101906102559190612244565b6107a6565b005b610276600480360381019061027191906122fa565b6107c6565b604051610283919061204c565b60405180910390f35b6102a660048036038101906102a1919061214f565b61081b565b6040516102b391906121bd565b60405180910390f35b6102d660048036038101906102d19190612297565b61082d565b6040516102e39190612349565b60405180910390f35b6102f46108e7565b005b610310600480360381019061030b9190612297565b6108fb565b60405161031d9190612349565b60405180910390f35b61032e610913565b60405161033b91906121bd565b60405180910390f35b61034c61093d565b60405161035991906120f7565b60405180910390f35b61037c60048036038101906103779190612390565b6109cf565b005b6103866109e5565b6040516103939190612349565b60405180910390f35b6103b660048036038101906103b19190612505565b6109eb565b005b6103d260048036038101906103cd919061214f565b610a08565b6040516103df91906120f7565b60405180910390f35b61040260048036038101906103fd91906122fa565b610a1a565b005b61041e60048036038101906104199190612629565b610c5f565b005b61043a60048036038101906104359190612685565b610c9b565b604051610447919061204c565b60405180910390f35b61046a60048036038101906104659190612297565b610d2f565b005b600061047782610db5565b9050919050565b60606000805461048d906126f4565b80601f01602080910402602001604051908101604052809291908181526020018280546104b9906126f4565b80156105065780601f106104db57610100808354040283529160200191610506565b820191906000526020600020905b8154815290600101906020018083116104e957829003601f168201915b5050505050905090565b600061051b82610e16565b5061052582610e9e565b9050919050565b61053e8282610539610edb565b610ee3565b5050565b600073ffffffffffffffffffffffffffffffffffffffff168273ffffffffffffffffffffffffffffffffffffffff16036105b45760006040517f64a0ae920000000000000000000000000000000000000000000000000000000081526004016105ab91906121bd565b60405180910390fd5b60006105c883836105c3610edb565b610ef5565b90508373ffffffffffffffffffffffffffffffffffffffff168173ffffffffffffffffffffffffffffffffffffffff161461063e578382826040517f64283d7b00000000000000000000000000000000000000000000000000000000815260040161063593929190612725565b60405180910390fd5b50505050565b61064c61110f565b6000600a60008373ffffffffffffffffffffffffffffffffffffffff1673ffffffffffffffffffffffffffffffffffffffff16815260200190815260200160002054146106ce576040517f08c379a00000000000000000000000000000000000000000000000000000000081526004016106c5906127a8565b60405180910390fd5b600b60008154809291906106e1906127f7565b9190505550600b54600a60008373ffffffffffffffffffffffffffffffffffffffff1673ffffffffffffffffffffffffffffffffffffffff168152602001908152602001600020819055508073ffffffffffffffffffffffffffffffffffffffff16600b547fae67715e53b8e1ee028f0b9cddbc208be7d0889701d1ba0ec4414baeaf37b2eb60405160405180910390a350565b61077d61110f565b600060086000815480929190610792906127f7565b9190505590506107a28282611196565b5050565b6107c1838383604051806020016040528060008152506109eb565b505050565b6000600960003385856040516020016107e1939291906128a8565b60405160208183030381529060405280519060200120815260200190815260200160002060009054906101000a900460ff16905092915050565b600061082682610e16565b9050919050565b60008073ffffffffffffffffffffffffffffffffffffffff168273ffffffffffffffffffffffffffffffffffffffff16036108a05760006040517f89c62b6400000000000000000000000000000000000000000000000000000000815260040161089791906121bd565b60405180910390fd5b600360008373ffffffffffffffffffffffffffffffffffffffff1673ffffffffffffffffffffffffffffffffffffffff168152602001908152602001600020549050919050565b6108ef61110f565b6108f960006111b4565b565b600a6020528060005260406000206000915090505481565b6000600660009054906101000a900473ffffffffffffffffffffffffffffffffffffffff16905090565b60606001805461094c906126f4565b80601f0160208091040260200160405190810160405280929190818152602001828054610978906126f4565b80156109c55780601f1061099a576101008083540402835291602001916109c5565b820191906000526020600020905b8154815290600101906020018083116109a857829003601f168201915b5050505050905090565b6109e16109da610edb565b838361127a565b5050565b600b5481565b6109f6848484610542565b610a02848484846113e9565b50505050565b6060610a13826115a0565b9050919050565b6000600a60008473ffffffffffffffffffffffffffffffffffffffff1673ffffffffffffffffffffffffffffffffffffffff1681526020019081526020016000205411610a9c576040517f08c379a0000000000000000000000000000000000000000000000000000000008152600401610a9390612931565b60405180910390fd5b60096000338484604051602001610ab5939291906128a8565b60405160208183030381529060405280519060200120815260200190815260200160002060009054906101000a900460ff1615610b27576040517f08c379a0000000000000000000000000000000000000000000000000000000008152600401610b1e9061299d565b60405180910390fd5b6000338383604051602001610b3e939291906128a8565b60405160208183030381529060405280519060200120905060016009600083815260200190815260200160002060006101000a81548160ff021916908315150217905550600a60008473ffffffffffffffffffffffffffffffffffffffff1673ffffffffffffffffffffffffffffffffffffffff1681526020019081526020016000206000815480929190610bd2906127f7565b9190505550600a60008473ffffffffffffffffffffffffffffffffffffffff1673ffffffffffffffffffffffffffffffffffffffff168152602001908152602001600020543373ffffffffffffffffffffffffffffffffffffffff167fd0e6c39f2e086dc49f1524b47725526a56945cd1ff661f37976f1725a1e5698660405160405180910390a3505050565b610c6761110f565b600060086000815480929190610c7c906127f7565b919050559050610c8c8382611196565b610c9681836116b3565b505050565b6000600560008473ffffffffffffffffffffffffffffffffffffffff1673ffffffffffffffffffffffffffffffffffffffff16815260200190815260200160002060008373ffffffffffffffffffffffffffffffffffffffff1673ffffffffffffffffffffffffffffffffffffffff16815260200190815260200160002060009054906101000a900460ff16905092915050565b610d3761110f565b600073ffffffffffffffffffffffffffffffffffffffff168173ffffffffffffffffffffffffffffffffffffffff1603610da95760006040517f1e4fbdf7000000000000000000000000000000000000000000000000000000008152600401610da091906121bd565b60405180910390fd5b610db2816111b4565b50565b6000634906490660e01b7bffffffffffffffffffffffffffffffffffffffffffffffffffffffff1916827bffffffffffffffffffffffffffffffffffffffffffffffffffffffff19161480610e0f5750610e0e8261170f565b5b9050919050565b600080610e22836117f1565b9050600073ffffffffffffffffffffffffffffffffffffffff168173ffffffffffffffffffffffffffffffffffffffff1603610e9557826040517f7e273289000000000000000000000000000000000000000000000000000000008152600401610e8c9190612349565b60405180910390fd5b80915050919050565b60006004600083815260200190815260200160002060009054906101000a900473ffffffffffffffffffffffffffffffffffffffff169050919050565b600033905090565b610ef0838383600161182e565b505050565b600080610f01846117f1565b9050600073ffffffffffffffffffffffffffffffffffffffff168373ffffffffffffffffffffffffffffffffffffffff1614610f4357610f428184866119f3565b5b600073ffffffffffffffffffffffffffffffffffffffff168173ffffffffffffffffffffffffffffffffffffffff1614610fd457610f8560008560008061182e565b6001600360008373ffffffffffffffffffffffffffffffffffffffff1673ffffffffffffffffffffffffffffffffffffffff168152602001908152602001600020600082825403925050819055505b600073ffffffffffffffffffffffffffffffffffffffff168573ffffffffffffffffffffffffffffffffffffffff1614611057576001600360008773ffffffffffffffffffffffffffffffffffffffff1673ffffffffffffffffffffffffffffffffffffffff168152602001908152602001600020600082825401925050819055505b846002600086815260200190815260200160002060006101000a81548173ffffffffffffffffffffffffffffffffffffffff021916908373ffffffffffffffffffffffffffffffffffffffff160217905550838573ffffffffffffffffffffffffffffffffffffffff168273ffffffffffffffffffffffffffffffffffffffff167fddf252ad1be2c89b69c2b068fc378daa952ba7f163c4a11628f55a4df523b3ef60405160405180910390a4809150509392505050565b611117610edb565b73ffffffffffffffffffffffffffffffffffffffff16611135610913565b73ffffffffffffffffffffffffffffffffffffffff161461119457611158610edb565b6040517f118cdaa700000000000000000000000000000000000000000000000000000000815260040161118b91906121bd565b60405180910390fd5b565b6111b0828260405180602001604052806000815250611ab7565b5050565b6000600660009054906101000a900473ffffffffffffffffffffffffffffffffffffffff16905081600660006101000a81548173ffffffffffffffffffffffffffffffffffffffff021916908373ffffffffffffffffffffffffffffffffffffffff1602179055508173ffffffffffffffffffffffffffffffffffffffff168173ffffffffffffffffffffffffffffffffffffffff167f8be0079c531659141344cd1fd0a4f28419497f9722a3daafe3b4186f6b6457e060405160405180910390a35050565b600073ffffffffffffffffffffffffffffffffffffffff168273ffffffffffffffffffffffffffffffffffffffff16036112eb57816040517f5b08ba180000000000000000000000000000000000000000000000000000000081526004016112e291906121bd565b60405180910390fd5b80600560008573ffffffffffffffffffffffffffffffffffffffff1673ffffffffffffffffffffffffffffffffffffffff16815260200190815260200160002060008473ffffffffffffffffffffffffffffffffffffffff1673ffffffffffffffffffffffffffffffffffffffff16815260200190815260200160002060006101000a81548160ff0219169083151502179055508173ffffffffffffffffffffffffffffffffffffffff168373ffffffffffffffffffffffffffffffffffffffff167f17307eab39ab6107e8899845ad3d59bd9653f200f220920489ca2b5937696c31836040516113dc919061204c565b60405180910390a3505050565b60008373ffffffffffffffffffffffffffffffffffffffff163b111561159a578273ffffffffffffffffffffffffffffffffffffffff1663150b7a0261142d610edb565b8685856040518563ffffffff1660e01b815260040161144f9493929190612a12565b6020604051808303816000875af192505050801561148b57506040513d601f19601f820116820180604052508101906114889190612a73565b60015b61150f573d80600081146114bb576040519150601f19603f3d011682016040523d82523d6000602084013e6114c0565b606091505b50600081510361150757836040517f64a0ae920000000000000000000000000000000000000000000000000000000081526004016114fe91906121bd565b60405180910390fd5b805181602001fd5b63150b7a0260e01b7bffffffffffffffffffffffffffffffffffffffffffffffffffffffff1916817bffffffffffffffffffffffffffffffffffffffffffffffffffffffff19161461159857836040517f64a0ae9200000000000000000000000000000000000000000000000000000000815260040161158f91906121bd565b60405180910390fd5b505b50505050565b60606115ab82610e16565b5060006007600084815260200190815260200160002080546115cc906126f4565b80601f01602080910402602001604051908101604052809291908181526020018280546115f8906126f4565b80156116455780601f1061161a57610100808354040283529160200191611645565b820191906000526020600020905b81548152906001019060200180831161162857829003601f168201915b505050505090506000611656611ad3565b9050600081510361166b5781925050506116ae565b6000825111156116a0578082604051602001611688929190612adc565b604051602081830303815290604052925050506116ae565b6116a984611aea565b925050505b919050565b806007600084815260200190815260200160002090816116d39190612cac565b507ff8e1a15aba9398e019f0b49df1a4fde98ee17ae345cb5f6b5e2c27f5033e8ce7826040516117039190612349565b60405180910390a15050565b60007f80ac58cd000000000000000000000000000000000000000000000000000000007bffffffffffffffffffffffffffffffffffffffffffffffffffffffff1916827bffffffffffffffffffffffffffffffffffffffffffffffffffffffff191614806117da57507f5b5e139f000000000000000000000000000000000000000000000000000000007bffffffffffffffffffffffffffffffffffffffffffffffffffffffff1916827bffffffffffffffffffffffffffffffffffffffffffffffffffffffff1916145b806117ea57506117e982611b53565b5b9050919050565b60006002600083815260200190815260200160002060009054906101000a900473ffffffffffffffffffffffffffffffffffffffff169050919050565b80806118675750600073ffffffffffffffffffffffffffffffffffffffff168273ffffffffffffffffffffffffffffffffffffffff1614155b1561199b57600061187784610e16565b9050600073ffffffffffffffffffffffffffffffffffffffff168373ffffffffffffffffffffffffffffffffffffffff16141580156118e257508273ffffffffffffffffffffffffffffffffffffffff168173ffffffffffffffffffffffffffffffffffffffff1614155b80156118f557506118f38184610c9b565b155b1561193757826040517fa9fbf51f00000000000000000000000000000000000000000000000000000000815260040161192e91906121bd565b60405180910390fd5b811561199957838573ffffffffffffffffffffffffffffffffffffffff168273ffffffffffffffffffffffffffffffffffffffff167f8c5be1e5ebec7d5bd14f71427d1e84f3dd0314c0f7b2291e5b200ac8c7c3b92560405160405180910390a45b505b836004600085815260200190815260200160002060006101000a81548173ffffffffffffffffffffffffffffffffffffffff021916908373ffffffffffffffffffffffffffffffffffffffff16021790555050505050565b6119fe838383611bbd565b611ab257600073ffffffffffffffffffffffffffffffffffffffff168373ffffffffffffffffffffffffffffffffffffffff1603611a7357806040517f7e273289000000000000000000000000000000000000000000000000000000008152600401611a6a9190612349565b60405180910390fd5b81816040517f177e802f000000000000000000000000000000000000000000000000000000008152600401611aa9929190612d7e565b60405180910390fd5b505050565b611ac18383611c7e565b611ace60008484846113e9565b505050565b606060405180602001604052806000815250905090565b6060611af582610e16565b506000611b00611ad3565b90506000815111611b205760405180602001604052806000815250611b4b565b80611b2a84611d77565b604051602001611b3b929190612adc565b6040516020818303038152906040525b915050919050565b60007f01ffc9a7000000000000000000000000000000000000000000000000000000007bffffffffffffffffffffffffffffffffffffffffffffffffffffffff1916827bffffffffffffffffffffffffffffffffffffffffffffffffffffffff1916149050919050565b60008073ffffffffffffffffffffffffffffffffffffffff168373ffffffffffffffffffffffffffffffffffffffff1614158015611c7557508273ffffffffffffffffffffffffffffffffffffffff168473ffffffffffffffffffffffffffffffffffffffff161480611c365750611c358484610c9b565b5b80611c7457508273ffffffffffffffffffffffffffffffffffffffff16611c5c83610e9e565b73ffffffffffffffffffffffffffffffffffffffff16145b5b90509392505050565b600073ffffffffffffffffffffffffffffffffffffffff168273ffffffffffffffffffffffffffffffffffffffff1603611cf05760006040517f64a0ae92000000000000000000000000000000000000000000000000000000008152600401611ce791906121bd565b60405180910390fd5b6000611cfe83836000610ef5565b9050600073ffffffffffffffffffffffffffffffffffffffff168173ffffffffffffffffffffffffffffffffffffffff1614611d725760006040517f73c6ac6e000000000000000000000000000000000000000000000000000000008152600401611d6991906121bd565b60405180910390fd5b505050565b606060006001611d8684611e45565b01905060008167ffffffffffffffff811115611da557611da46123da565b5b6040519080825280601f01601f191660200182016040528015611dd75781602001600182028036833780820191505090505b509050600082602001820190505b600115611e3a578080600190039150507f3031323334353637383961626364656600000000000000000000000000000000600a86061a8153600a8581611e2e57611e2d612da7565b5b04945060008503611de5575b819350505050919050565b600080600090507a184f03e93ff9f4daa797ed6e38ed64bf6a1f0100000000000000008310611ea3577a184f03e93ff9f4daa797ed6e38ed64bf6a1f0100000000000000008381611e9957611e98612da7565b5b0492506040810190505b6d04ee2d6d415b85acef81000000008310611ee0576d04ee2d6d415b85acef81000000008381611ed657611ed5612da7565b5b0492506020810190505b662386f26fc100008310611f0f57662386f26fc100008381611f0557611f04612da7565b5b0492506010810190505b6305f5e1008310611f38576305f5e1008381611f2e57611f2d612da7565b5b0492506008810190505b6127108310611f5d576127108381611f5357611f52612da7565b5b0492506004810190505b60648310611f805760648381611f7657611f75612da7565b5b0492506002810190505b600a8310611f8f576001810190505b80915050919050565b6000604051905090565b600080fd5b600080fd5b60007fffffffff0000000000000000000000000000000000000000000000000000000082169050919050565b611fe181611fac565b8114611fec57600080fd5b50565b600081359050611ffe81611fd8565b92915050565b60006020828403121561201a57612019611fa2565b5b600061202884828501611fef565b91505092915050565b60008115159050919050565b61204681612031565b82525050565b6000602082019050612061600083018461203d565b92915050565b600081519050919050565b600082825260208201905092915050565b60005b838110156120a1578082015181840152602081019050612086565b60008484015250505050565b6000601f19601f8301169050919050565b60006120c982612067565b6120d38185612072565b93506120e3818560208601612083565b6120ec816120ad565b840191505092915050565b6000602082019050818103600083015261211181846120be565b905092915050565b6000819050919050565b61212c81612119565b811461213757600080fd5b50565b60008135905061214981612123565b92915050565b60006020828403121561216557612164611fa2565b5b60006121738482850161213a565b91505092915050565b600073ffffffffffffffffffffffffffffffffffffffff82169050919050565b60006121a78261217c565b9050919050565b6121b78161219c565b82525050565b60006020820190506121d260008301846121ae565b92915050565b6121e18161219c565b81146121ec57600080fd5b50565b6000813590506121fe816121d8565b92915050565b6000806040838503121561221b5761221a611fa2565b5b6000612229858286016121ef565b925050602061223a8582860161213a565b9150509250929050565b60008060006060848603121561225d5761225c611fa2565b5b600061226b868287016121ef565b935050602061227c868287016121ef565b925050604061228d8682870161213a565b9150509250925092565b6000602082840312156122ad576122ac611fa2565b5b60006122bb848285016121ef565b91505092915050565b6000819050919050565b6122d7816122c4565b81146122e257600080fd5b50565b6000813590506122f4816122ce565b92915050565b6000806040838503121561231157612310611fa2565b5b600061231f858286016121ef565b9250506020612330858286016122e5565b9150509250929050565b61234381612119565b82525050565b600060208201905061235e600083018461233a565b92915050565b61236d81612031565b811461237857600080fd5b50565b60008135905061238a81612364565b92915050565b600080604083850312156123a7576123a6611fa2565b5b60006123b5858286016121ef565b92505060206123c68582860161237b565b9150509250929050565b600080fd5b600080fd5b7f4e487b7100000000000000000000000000000000000000000000000000000000600052604160045260246000fd5b612412826120ad565b810181811067ffffffffffffffff82111715612431576124306123da565b5b80604052505050565b6000612444611f98565b90506124508282612409565b919050565b600067ffffffffffffffff8211156124705761246f6123da565b5b612479826120ad565b9050602081019050919050565b82818337600083830152505050565b60006124a86124a384612455565b61243a565b9050828152602081018484840111156124c4576124c36123d5565b5b6124cf848285612486565b509392505050565b600082601f8301126124ec576124eb6123d0565b5b81356124fc848260208601612495565b91505092915050565b6000806000806080858703121561251f5761251e611fa2565b5b600061252d878288016121ef565b945050602061253e878288016121ef565b935050604061254f8782880161213a565b925050606085013567ffffffffffffffff8111156125705761256f611fa7565b5b61257c878288016124d7565b91505092959194509250565b600067ffffffffffffffff8211156125a3576125a26123da565b5b6125ac826120ad565b9050602081019050919050565b60006125cc6125c784612588565b61243a565b9050828152602081018484840111156125e8576125e76123d5565b5b6125f3848285612486565b509392505050565b600082601f8301126126105761260f6123d0565b5b81356126208482602086016125b9565b91505092915050565b600080604083850312156126405761263f611fa2565b5b600061264e858286016121ef565b925050602083013567ffffffffffffffff81111561266f5761266e611fa7565b5b61267b858286016125fb565b9150509250929050565b6000806040838503121561269c5761269b611fa2565b5b60006126aa858286016121ef565b92505060206126bb858286016121ef565b9150509250929050565b7f4e487b7100000000000000000000000000000000000000000000000000000000600052602260045260246000fd5b6000600282049050600182168061270c57607f821691505b60208210810361271f5761271e6126c5565b5b50919050565b600060608201905061273a60008301866121ae565b612747602083018561233a565b61275460408301846121ae565b949350505050565b7f43616e64696461746520616c7265616479206578697374730000000000000000600082015250565b6000612792601883612072565b915061279d8261275c565b602082019050919050565b600060208201905081810360008301526127c181612785565b9050919050565b7f4e487b7100000000000000000000000000000000000000000000000000000000600052601160045260246000fd5b600061280282612119565b91507fffffffffffffffffffffffffffffffffffffffffffffffffffffffffffffffff8203612834576128336127c8565b5b600182019050919050565b60008160601b9050919050565b60006128578261283f565b9050919050565b60006128698261284c565b9050919050565b61288161287c8261219c565b61285e565b82525050565b6000819050919050565b6128a261289d826122c4565b612887565b82525050565b60006128b48286612870565b6014820191506128c48285612870565b6014820191506128d48284612891565b602082019150819050949350505050565b7f43616e64696461746520646f6573206e6f742065786973740000000000000000600082015250565b600061291b601883612072565b9150612926826128e5565b602082019050919050565b6000602082019050818103600083015261294a8161290e565b9050919050565b7f566f746520616c72656164792063617374656400000000000000000000000000600082015250565b6000612987601383612072565b915061299282612951565b602082019050919050565b600060208201905081810360008301526129b68161297a565b9050919050565b600081519050919050565b600082825260208201905092915050565b60006129e4826129bd565b6129ee81856129c8565b93506129fe818560208601612083565b612a07816120ad565b840191505092915050565b6000608082019050612a2760008301876121ae565b612a3460208301866121ae565b612a41604083018561233a565b8181036060830152612a5381846129d9565b905095945050505050565b600081519050612a6d81611fd8565b92915050565b600060208284031215612a8957612a88611fa2565b5b6000612a9784828501612a5e565b91505092915050565b600081905092915050565b6000612ab682612067565b612ac08185612aa0565b9350612ad0818560208601612083565b80840191505092915050565b6000612ae88285612aab565b9150612af48284612aab565b91508190509392505050565b60008190508160005260206000209050919050565b60006020601f8301049050919050565b600082821b905092915050565b600060088302612b627fffffffffffffffffffffffffffffffffffffffffffffffffffffffffffffffff82612b25565b612b6c8683612b25565b95508019841693508086168417925050509392505050565b6000819050919050565b6000612ba9612ba4612b9f84612119565b612b84565b612119565b9050919050565b6000819050919050565b612bc383612b8e565b612bd7612bcf82612bb0565b848454612b32565b825550505050565b600090565b612bec612bdf565b612bf7818484612bba565b505050565b5b81811015612c1b57612c10600082612be4565b600181019050612bfd565b5050565b601f821115612c6057612c3181612b00565b612c3a84612b15565b81016020851015612c49578190505b612c5d612c5585612b15565b830182612bfc565b50505b505050565b600082821c905092915050565b6000612c8360001984600802612c65565b1980831691505092915050565b6000612c9c8383612c72565b9150826002028217905092915050565b612cb582612067565b67ffffffffffffffff811115612cce57612ccd6123da565b5b612cd882546126f4565b612ce3828285612c1f565b600060209050601f831160018114612d165760008415612d04578287015190505b612d0e8582612c90565b865550612d76565b601f198416612d2486612b00565b60005b82811015612d4c57848901518255600182019150602085019450602081019050612d27565b86831015612d695784890151612d65601f891682612c72565b8355505b6001600288020188555050505b505050505050565b6000604082019050612d9360008301856121ae565b612da0602083018461233a565b9392505050565b7f4e487b7100000000000000000000000000000000000000000000000000000000600052601260045260246000fdfea2646970667358221220e3cf447a7dee36ce89ce9624f86faee15e76574301abeb0afb564b6d3cc212cc64736f6c63430008180033",
  "linkReferences": {},
  "deployedLinkReferences": {}
}