{
  "_format": "hh-sol-artifact-1",
  "contractName": "VoteSystem",
  "sourceName": "contracts/VoteSystem.sol",
  "abi": [
    {
      "inputs": [
        {
          "internalType": "address",
          "name": "initialOwner",
          "type": "address"
        }
      ],
      "stateMutability": "nonpayable",
      "type": "constructor"
    },
    {
      "inputs": [
        {
          "internalType": "address",
          "name": "sender",
          "type": "address"
        },
        {
          "internalType": "uint256",
          "name": "tokenId",
          "type": "uint256"
        },
        {
          "internalType": "address",
          "name": "owner",
          "type": "address"
        }
      ],
      "name": "ERC721IncorrectOwner",
      "type": "error"
    },
    {
      "inputs": [
        {
          "internalType": "address",
          "name": "operator",
          "type": "address"
        },
        {
          "internalType": "uint256",
          "name": "tokenId",
          "type": "uint256"
        }
      ],
      "name": "ERC721InsufficientApproval",
      "type": "error"
    },
    {
      "inputs": [
        {
          "internalType": "address",
          "name": "approver",
          "type": "address"
        }
      ],
      "name": "ERC721InvalidApprover",
      "type": "error"
    },
    {
      "inputs": [
        {
          "internalType": "address",
          "name": "operator",
          "type": "address"
        }
      ],
      "name": "ERC721InvalidOperator",
      "type": "error"
    },
    {
      "inputs": [
        {
          "internalType": "address",
          "name": "owner",
          "type": "address"
        }
      ],
      "name": "ERC721InvalidOwner",
      "type": "error"
    },
    {
      "inputs": [
        {
          "internalType": "address",
          "name": "receiver",
          "type": "address"
        }
      ],
      "name": "ERC721InvalidReceiver",
      "type": "error"
    },
    {
      "inputs": [
        {
          "internalType": "address",
          "name": "sender",
          "type": "address"
        }
      ],
      "name": "ERC721InvalidSender",
      "type": "error"
    },
    {
      "inputs": [
        {
          "internalType": "uint256",
          "name": "tokenId",
          "type": "uint256"
        }
      ],
      "name": "ERC721NonexistentToken",
      "type": "error"
    },
    {
      "inputs": [
        {
          "internalType": "address",
          "name": "owner",
          "type": "address"
        }
      ],
      "name": "OwnableInvalidOwner",
      "type": "error"
    },
    {
      "inputs": [
        {
          "internalType": "address",
          "name": "account",
          "type": "address"
        }
      ],
      "name": "OwnableUnauthorizedAccount",
      "type": "error"
    },
    {
      "anonymous": false,
      "inputs": [
        {
          "indexed": true,
          "internalType": "address",
          "name": "owner",
          "type": "address"
        },
        {
          "indexed": true,
          "internalType": "address",
          "name": "approved",
          "type": "address"
        },
        {
          "indexed": true,
          "internalType": "uint256",
          "name": "tokenId",
          "type": "uint256"
        }
      ],
      "name": "Approval",
      "type": "event"
    },
    {
      "anonymous": false,
      "inputs": [
        {
          "indexed": true,
          "internalType": "address",
          "name": "owner",
          "type": "address"
        },
        {
          "indexed": true,
          "internalType": "address",
          "name": "operator",
          "type": "address"
        },
        {
          "indexed": false,
          "internalType": "bool",
          "name": "approved",
          "type": "bool"
        }
      ],
      "name": "ApprovalForAll",
      "type": "event"
    },
    {
      "anonymous": false,
      "inputs": [
        {
          "indexed": false,
          "internalType": "uint256",
          "name": "_fromTokenId",
          "type": "uint256"
        },
        {
          "indexed": false,
          "internalType": "uint256",
          "name": "_toTokenId",
          "type": "uint256"
        }
      ],
      "name": "BatchMetadataUpdate",
      "type": "event"
    },
    {
      "anonymous": false,
      "inputs": [
        {
          "indexed": true,
          "internalType": "uint256",
          "name": "candidateId",
          "type": "uint256"
        },
        {
          "indexed": true,
          "internalType": "address",
          "name": "candidateAddress",
          "type": "address"
        }
      ],
      "name": "CandidateAdded",
      "type": "event"
    },
    {
      "anonymous": false,
      "inputs": [
        {
          "indexed": false,
          "internalType": "uint256",
          "name": "_tokenId",
          "type": "uint256"
        }
      ],
      "name": "MetadataUpdate",
      "type": "event"
    },
    {
      "anonymous": false,
      "inputs": [
        {
          "indexed": true,
          "internalType": "address",
          "name": "previousOwner",
          "type": "address"
        },
        {
          "indexed": true,
          "internalType": "address",
          "name": "newOwner",
          "type": "address"
        }
      ],
      "name": "OwnershipTransferred",
      "type": "event"
    },
    {
      "anonymous": false,
      "inputs": [
        {
          "indexed": true,
          "internalType": "address",
          "name": "from",
          "type": "address"
        },
        {
          "indexed": true,
          "internalType": "address",
          "name": "to",
          "type": "address"
        },
        {
          "indexed": true,
          "internalType": "uint256",
          "name": "tokenId",
          "type": "uint256"
        }
      ],
      "name": "Transfer",
      "type": "event"
    },
    {
      "anonymous": false,
      "inputs": [
        {
          "indexed": true,
          "internalType": "address",
          "name": "voter",
          "type": "address"
        },
        {
          "indexed": true,
          "internalType": "uint256",
          "name": "candidateId",
          "type": "uint256"
        }
      ],
      "name": "VoteCasted",
      "type": "event"
    },
    {
      "inputs": [
        {
          "internalType": "address",
          "name": "candidate",
          "type": "address"
        }
      ],
      "name": "addCandidate",
      "outputs": [],
      "stateMutability": "nonpayable",
      "type": "function"
    },
    {
      "inputs": [
        {
          "internalType": "address",
          "name": "to",
          "type": "address"
        },
        {
          "internalType": "uint256",
          "name": "tokenId",
          "type": "uint256"
        }
      ],
      "name": "approve",
      "outputs": [],
      "stateMutability": "nonpayable",
      "type": "function"
    },
    {
      "inputs": [
        {
          "internalType": "address",
          "name": "owner",
          "type": "address"
        }
      ],
      "name": "balanceOf",
      "outputs": [
        {
          "internalType": "uint256",
          "name": "",
          "type": "uint256"
        }
      ],
      "stateMutability": "view",
      "type": "function"
    },
    {
      "inputs": [],
      "name": "candidateCount",
      "outputs": [
        {
          "internalType": "uint256",
          "name": "",
          "type": "uint256"
        }
      ],
      "stateMutability": "view",
      "type": "function"
    },
    {
      "inputs": [
        {
          "internalType": "address",
          "name": "",
          "type": "address"
        }
      ],
      "name": "candidates",
      "outputs": [
        {
          "internalType": "uint256",
          "name": "",
          "type": "uint256"
        }
      ],
      "stateMutability": "view",
      "type": "function"
    },
    {
      "inputs": [
        {
          "internalType": "address",
          "name": "candidate",
          "type": "address"
        },
        {
          "internalType": "bytes32",
          "name": "electoralVoteEncoded",
          "type": "bytes32"
        }
      ],
      "name": "castVote",
      "outputs": [],
      "stateMutability": "nonpayable",
      "type": "function"
    },
    {
      "inputs": [
        {
          "internalType": "uint256",
          "name": "tokenId",
          "type": "uint256"
        }
      ],
      "name": "getApproved",
      "outputs": [
        {
          "internalType": "address",
          "name": "",
          "type": "address"
        }
      ],
      "stateMutability": "view",
      "type": "function"
    },
    {
      "inputs": [
        {
          "internalType": "address",
          "name": "candidate",
          "type": "address"
        },
        {
          "internalType": "bytes32",
          "name": "electoralVoteEncoded",
          "type": "bytes32"
        }
      ],
      "name": "hasVoted",
      "outputs": [
        {
          "internalType": "bool",
          "name": "",
          "type": "bool"
        }
      ],
      "stateMutability": "view",
      "type": "function"
    },
    {
      "inputs": [
        {
          "internalType": "address",
          "name": "owner",
          "type": "address"
        },
        {
          "internalType": "address",
          "name": "operator",
          "type": "address"
        }
      ],
      "name": "isApprovedForAll",
      "outputs": [
        {
          "internalType": "bool",
          "name": "",
          "type": "bool"
        }
      ],
      "stateMutability": "view",
      "type": "function"
    },
    {
      "inputs": [],
      "name": "name",
      "outputs": [
        {
          "internalType": "string",
          "name": "",
          "type": "string"
        }
      ],
      "stateMutability": "view",
      "type": "function"
    },
    {
      "inputs": [],
      "name": "owner",
      "outputs": [
        {
          "internalType": "address",
          "name": "",
          "type": "address"
        }
      ],
      "stateMutability": "view",
      "type": "function"
    },
    {
      "inputs": [
        {
          "internalType": "uint256",
          "name": "tokenId",
          "type": "uint256"
        }
      ],
      "name": "ownerOf",
      "outputs": [
        {
          "internalType": "address",
          "name": "",
          "type": "address"
        }
      ],
      "stateMutability": "view",
      "type": "function"
    },
    {
      "inputs": [],
      "name": "renounceOwnership",
      "outputs": [],
      "stateMutability": "nonpayable",
      "type": "function"
    },
    {
      "inputs": [
        {
          "internalType": "address",
          "name": "to",
          "type": "address"
        }
      ],
      "name": "safeMint",
      "outputs": [],
      "stateMutability": "nonpayable",
      "type": "function"
    },
    {
      "inputs": [
        {
          "internalType": "address",
          "name": "to",
          "type": "address"
        },
        {
          "internalType": "string",
          "name": "uri",
          "type": "string"
        }
      ],
      "name": "safeMint",
      "outputs": [],
      "stateMutability": "nonpayable",
      "type": "function"
    },
    {
      "inputs": [
        {
          "internalType": "address",
          "name": "from",
          "type": "address"
        },
        {
          "internalType": "address",
          "name": "to",
          "type": "address"
        },
        {
          "internalType": "uint256",
          "name": "tokenId",
          "type": "uint256"
        }
      ],
      "name": "safeTransferFrom",
      "outputs": [],
      "stateMutability": "nonpayable",
      "type": "function"
    },
    {
      "inputs": [
        {
          "internalType": "address",
          "name": "from",
          "type": "address"
        },
        {
          "internalType": "address",
          "name": "to",
          "type": "address"
        },
        {
          "internalType": "uint256",
          "name": "tokenId",
          "type": "uint256"
        },
        {
          "internalType": "bytes",
          "name": "data",
          "type": "bytes"
        }
      ],
      "name": "safeTransferFrom",
      "outputs": [],
      "stateMutability": "nonpayable",
      "type": "function"
    },
    {
      "inputs": [
        {
          "internalType": "address",
          "name": "operator",
          "type": "address"
        },
        {
          "internalType": "bool",
          "name": "approved",
          "type": "bool"
        }
      ],
      "name": "setApprovalForAll",
      "outputs": [],
      "stateMutability": "nonpayable",
      "type": "function"
    },
    {
      "inputs": [
        {
          "internalType": "bytes4",
          "name": "interfaceId",
          "type": "bytes4"
        }
      ],
      "name": "supportsInterface",
      "outputs": [
        {
          "internalType": "bool",
          "name": "",
          "type": "bool"
        }
      ],
      "stateMutability": "view",
      "type": "function"
    },
    {
      "inputs": [],
      "name": "symbol",
      "outputs": [
        {
          "internalType": "string",
          "name": "",
          "type": "string"
        }
      ],
      "stateMutability": "view",
      "type": "function"
    },
    {
      "inputs": [
        {
          "internalType": "uint256",
          "name": "tokenId",
          "type": "uint256"
        }
      ],
      "name": "tokenURI",
      "outputs": [
        {
          "internalType": "string",
          "name": "",
          "type": "string"
        }
      ],
      "stateMutability": "view",
      "type": "function"
    },
    {
      "inputs": [
        {
          "internalType": "address",
          "name": "from",
          "type": "address"
        },
        {
          "internalType": "address",
          "name": "to",
          "type": "address"
        },
        {
          "internalType": "uint256",
          "name": "tokenId",
          "type": "uint256"
        }
      ],
      "name": "transferFrom",
      "outputs": [],
      "stateMutability": "nonpayable",
      "type": "function"
    },
    {
      "inputs": [
        {
          "internalType": "address",
          "name": "newOwner",
          "type": "address"
        }
      ],
      "name": "transferOwnership",
      "outputs": [],
      "stateMutability": "nonpayable",
      "type": "function"
    }
  ],
  "bytecode": "0x60806040523480156200001157600080fd5b506040516200341038038062003410833981810160405281019062000037919062000288565b806040518060400160405280600881526020017f566f7465734d65780000000000000000000000000000000000000000000000008152506040518060400160405280600381526020017f56545800000000000000000000000000000000000000000000000000000000008152508160009081620000b5919062000534565b508060019081620000c7919062000534565b505050600073ffffffffffffffffffffffffffffffffffffffff168173ffffffffffffffffffffffffffffffffffffffff16036200013f5760006040517f1e4fbdf70000000000000000000000000000000000000000000000000000000081526004016200013691906200062c565b60405180910390fd5b62000150816200015860201b60201c565b505062000649565b6000600660009054906101000a900473ffffffffffffffffffffffffffffffffffffffff16905081600660006101000a81548173ffffffffffffffffffffffffffffffffffffffff021916908373ffffffffffffffffffffffffffffffffffffffff1602179055508173ffffffffffffffffffffffffffffffffffffffff168173ffffffffffffffffffffffffffffffffffffffff167f8be0079c531659141344cd1fd0a4f28419497f9722a3daafe3b4186f6b6457e060405160405180910390a35050565b600080fd5b600073ffffffffffffffffffffffffffffffffffffffff82169050919050565b6000620002508262000223565b9050919050565b620002628162000243565b81146200026e57600080fd5b50565b600081519050620002828162000257565b92915050565b600060208284031215620002a157620002a06200021e565b5b6000620002b18482850162000271565b91505092915050565b600081519050919050565b7f4e487b7100000000000000000000000000000000000000000000000000000000600052604160045260246000fd5b7f4e487b7100000000000000000000000000000000000000000000000000000000600052602260045260246000fd5b600060028204905060018216806200033c57607f821691505b602082108103620003525762000351620002f4565b5b50919050565b60008190508160005260206000209050919050565b60006020601f8301049050919050565b600082821b905092915050565b600060088302620003bc7fffffffffffffffffffffffffffffffffffffffffffffffffffffffffffffffff826200037d565b620003c886836200037d565b95508019841693508086168417925050509392505050565b6000819050919050565b6000819050919050565b6000620004156200040f6200040984620003e0565b620003ea565b620003e0565b9050919050565b6000819050919050565b6200043183620003f4565b6200044962000440826200041c565b8484546200038a565b825550505050565b600090565b6200046062000451565b6200046d81848462000426565b505050565b5b8181101562000495576200048960008262000456565b60018101905062000473565b5050565b601f821115620004e457620004ae8162000358565b620004b9846200036d565b81016020851015620004c9578190505b620004e1620004d8856200036d565b83018262000472565b50505b505050565b600082821c905092915050565b60006200050960001984600802620004e9565b1980831691505092915050565b6000620005248383620004f6565b9150826002028217905092915050565b6200053f82620002ba565b67ffffffffffffffff8111156200055b576200055a620002c5565b5b62000567825462000323565b6200057482828562000499565b600060209050601f831160018114620005ac576000841562000597578287015190505b620005a3858262000516565b86555062000613565b601f198416620005bc8662000358565b60005b82811015620005e657848901518255600182019150602085019450602081019050620005bf565b8683101562000606578489015162000602601f891682620004f6565b8355505b6001600288020188555050505b505050505050565b620006268162000243565b82525050565b60006020820190506200064360008301846200061b565b92915050565b612db780620006596000396000f3fe608060405234801561001057600080fd5b506004361061014d5760003560e01c8063715018a6116100c3578063b88d4fde1161007c578063b88d4fde1461039c578063c87b56dd146103b8578063cdbb773c146103e8578063d204c45e14610404578063e985e9c514610420578063f2fde38b146104505761014d565b8063715018a6146102ec5780638ab66a90146102f65780638da5cb5b1461032657806395d89b4114610344578063a22cb46514610362578063a9a981a31461037e5761014d565b80633acd75f8116101155780633acd75f81461020857806340d097c31461022457806342842e0e146102405780634a1dc5cc1461025c5780636352211e1461028c57806370a08231146102bc5761014d565b806301ffc9a71461015257806306fdde0314610182578063081812fc146101a0578063095ea7b3146101d057806323b872dd146101ec575b600080fd5b61016c60048036038101906101679190611faf565b61046c565b6040516101799190611ff7565b60405180910390f35b61018a61047e565b60405161019791906120a2565b60405180910390f35b6101ba60048036038101906101b591906120fa565b610510565b6040516101c79190612168565b60405180910390f35b6101ea60048036038101906101e591906121af565b61052c565b005b610206600480360381019061020191906121ef565b610542565b005b610222600480360381019061021d9190612242565b610644565b005b61023e60048036038101906102399190612242565b610775565b005b61025a600480360381019061025591906121ef565b6107a6565b005b610276600480360381019061027191906122a5565b6107c6565b6040516102839190611ff7565b60405180910390f35b6102a660048036038101906102a191906120fa565b61081b565b6040516102b39190612168565b60405180910390f35b6102d660048036038101906102d19190612242565b61082d565b6040516102e391906122f4565b60405180910390f35b6102f46108e7565b005b610310600480360381019061030b9190612242565b6108fb565b60405161031d91906122f4565b60405180910390f35b61032e610913565b60405161033b9190612168565b60405180910390f35b61034c61093d565b60405161035991906120a2565b60405180910390f35b61037c6004803603810190610377919061233b565b6109cf565b005b6103866109e5565b60405161039391906122f4565b60405180910390f35b6103b660048036038101906103b191906124b0565b6109eb565b005b6103d260048036038101906103cd91906120fa565b610a08565b6040516103df91906120a2565b60405180910390f35b61040260048036038101906103fd91906122a5565b610a1a565b005b61041e600480360381019061041991906125d4565b610c0a565b005b61043a60048036038101906104359190612630565b610c46565b6040516104479190611ff7565b60405180910390f35b61046a60048036038101906104659190612242565b610cda565b005b600061047782610d60565b9050919050565b60606000805461048d9061269f565b80601f01602080910402602001604051908101604052809291908181526020018280546104b99061269f565b80156105065780601f106104db57610100808354040283529160200191610506565b820191906000526020600020905b8154815290600101906020018083116104e957829003601f168201915b5050505050905090565b600061051b82610dc1565b5061052582610e49565b9050919050565b61053e8282610539610e86565b610e8e565b5050565b600073ffffffffffffffffffffffffffffffffffffffff168273ffffffffffffffffffffffffffffffffffffffff16036105b45760006040517f64a0ae920000000000000000000000000000000000000000000000000000000081526004016105ab9190612168565b60405180910390fd5b60006105c883836105c3610e86565b610ea0565b90508373ffffffffffffffffffffffffffffffffffffffff168173ffffffffffffffffffffffffffffffffffffffff161461063e578382826040517f64283d7b000000000000000000000000000000000000000000000000000000008152600401610635939291906126d0565b60405180910390fd5b50505050565b61064c6110ba565b6000600a60008373ffffffffffffffffffffffffffffffffffffffff1673ffffffffffffffffffffffffffffffffffffffff16815260200190815260200160002054146106ce576040517f08c379a00000000000000000000000000000000000000000000000000000000081526004016106c590612753565b60405180910390fd5b600b60008154809291906106e1906127a2565b9190505550600b54600a60008373ffffffffffffffffffffffffffffffffffffffff1673ffffffffffffffffffffffffffffffffffffffff168152602001908152602001600020819055508073ffffffffffffffffffffffffffffffffffffffff16600b547fae67715e53b8e1ee028f0b9cddbc208be7d0889701d1ba0ec4414baeaf37b2eb60405160405180910390a350565b61077d6110ba565b600060086000815480929190610792906127a2565b9190505590506107a28282611141565b5050565b6107c1838383604051806020016040528060008152506109eb565b505050565b6000600960003385856040516020016107e193929190612853565b60405160208183030381529060405280519060200120815260200190815260200160002060009054906101000a900460ff16905092915050565b600061082682610dc1565b9050919050565b60008073ffffffffffffffffffffffffffffffffffffffff168273ffffffffffffffffffffffffffffffffffffffff16036108a05760006040517f89c62b640000000000000000000000000000000000000000000000000000000081526004016108979190612168565b60405180910390fd5b600360008373ffffffffffffffffffffffffffffffffffffffff1673ffffffffffffffffffffffffffffffffffffffff168152602001908152602001600020549050919050565b6108ef6110ba565b6108f9600061115f565b565b600a6020528060005260406000206000915090505481565b6000600660009054906101000a900473ffffffffffffffffffffffffffffffffffffffff16905090565b60606001805461094c9061269f565b80601f01602080910402602001604051908101604052809291908181526020018280546109789061269f565b80156109c55780601f1061099a576101008083540402835291602001916109c5565b820191906000526020600020905b8154815290600101906020018083116109a857829003601f168201915b5050505050905090565b6109e16109da610e86565b8383611225565b5050565b600b5481565b6109f6848484610542565b610a0284848484611394565b50505050565b6060610a138261154b565b9050919050565b6000600a60008473ffffffffffffffffffffffffffffffffffffffff1673ffffffffffffffffffffffffffffffffffffffff1681526020019081526020016000205411610a9c576040517f08c379a0000000000000000000000000000000000000000000000000000000008152600401610a93906128dc565b60405180910390fd5b60096000338484604051602001610ab593929190612853565b60405160208183030381529060405280519060200120815260200190815260200160002060009054906101000a900460ff1615610b27576040517f08c379a0000000000000000000000000000000000000000000000000000000008152600401610b1e90612948565b60405180910390fd5b6000338383604051602001610b3e93929190612853565b60405160208183030381529060405280519060200120905060016009600083815260200190815260200160002060006101000a81548160ff021916908315150217905550600a60008473ffffffffffffffffffffffffffffffffffffffff1673ffffffffffffffffffffffffffffffffffffffff168152602001908152602001600020543373ffffffffffffffffffffffffffffffffffffffff167fd0e6c39f2e086dc49f1524b47725526a56945cd1ff661f37976f1725a1e5698660405160405180910390a3505050565b610c126110ba565b600060086000815480929190610c27906127a2565b919050559050610c378382611141565b610c41818361165e565b505050565b6000600560008473ffffffffffffffffffffffffffffffffffffffff1673ffffffffffffffffffffffffffffffffffffffff16815260200190815260200160002060008373ffffffffffffffffffffffffffffffffffffffff1673ffffffffffffffffffffffffffffffffffffffff16815260200190815260200160002060009054906101000a900460ff16905092915050565b610ce26110ba565b600073ffffffffffffffffffffffffffffffffffffffff168173ffffffffffffffffffffffffffffffffffffffff1603610d545760006040517f1e4fbdf7000000000000000000000000000000000000000000000000000000008152600401610d4b9190612168565b60405180910390fd5b610d5d8161115f565b50565b6000634906490660e01b7bffffffffffffffffffffffffffffffffffffffffffffffffffffffff1916827bffffffffffffffffffffffffffffffffffffffffffffffffffffffff19161480610dba5750610db9826116ba565b5b9050919050565b600080610dcd8361179c565b9050600073ffffffffffffffffffffffffffffffffffffffff168173ffffffffffffffffffffffffffffffffffffffff1603610e4057826040517f7e273289000000000000000000000000000000000000000000000000000000008152600401610e3791906122f4565b60405180910390fd5b80915050919050565b60006004600083815260200190815260200160002060009054906101000a900473ffffffffffffffffffffffffffffffffffffffff169050919050565b600033905090565b610e9b83838360016117d9565b505050565b600080610eac8461179c565b9050600073ffffffffffffffffffffffffffffffffffffffff168373ffffffffffffffffffffffffffffffffffffffff1614610eee57610eed81848661199e565b5b600073ffffffffffffffffffffffffffffffffffffffff168173ffffffffffffffffffffffffffffffffffffffff1614610f7f57610f306000856000806117d9565b6001600360008373ffffffffffffffffffffffffffffffffffffffff1673ffffffffffffffffffffffffffffffffffffffff168152602001908152602001600020600082825403925050819055505b600073ffffffffffffffffffffffffffffffffffffffff168573ffffffffffffffffffffffffffffffffffffffff1614611002576001600360008773ffffffffffffffffffffffffffffffffffffffff1673ffffffffffffffffffffffffffffffffffffffff168152602001908152602001600020600082825401925050819055505b846002600086815260200190815260200160002060006101000a81548173ffffffffffffffffffffffffffffffffffffffff021916908373ffffffffffffffffffffffffffffffffffffffff160217905550838573ffffffffffffffffffffffffffffffffffffffff168273ffffffffffffffffffffffffffffffffffffffff167fddf252ad1be2c89b69c2b068fc378daa952ba7f163c4a11628f55a4df523b3ef60405160405180910390a4809150509392505050565b6110c2610e86565b73ffffffffffffffffffffffffffffffffffffffff166110e0610913565b73ffffffffffffffffffffffffffffffffffffffff161461113f57611103610e86565b6040517f118cdaa70000000000000000000000000000000000000000000000000000000081526004016111369190612168565b60405180910390fd5b565b61115b828260405180602001604052806000815250611a62565b5050565b6000600660009054906101000a900473ffffffffffffffffffffffffffffffffffffffff16905081600660006101000a81548173ffffffffffffffffffffffffffffffffffffffff021916908373ffffffffffffffffffffffffffffffffffffffff1602179055508173ffffffffffffffffffffffffffffffffffffffff168173ffffffffffffffffffffffffffffffffffffffff167f8be0079c531659141344cd1fd0a4f28419497f9722a3daafe3b4186f6b6457e060405160405180910390a35050565b600073ffffffffffffffffffffffffffffffffffffffff168273ffffffffffffffffffffffffffffffffffffffff160361129657816040517f5b08ba1800000000000000000000000000000000000000000000000000000000815260040161128d9190612168565b60405180910390fd5b80600560008573ffffffffffffffffffffffffffffffffffffffff1673ffffffffffffffffffffffffffffffffffffffff16815260200190815260200160002060008473ffffffffffffffffffffffffffffffffffffffff1673ffffffffffffffffffffffffffffffffffffffff16815260200190815260200160002060006101000a81548160ff0219169083151502179055508173ffffffffffffffffffffffffffffffffffffffff168373ffffffffffffffffffffffffffffffffffffffff167f17307eab39ab6107e8899845ad3d59bd9653f200f220920489ca2b5937696c31836040516113879190611ff7565b60405180910390a3505050565b60008373ffffffffffffffffffffffffffffffffffffffff163b1115611545578273ffffffffffffffffffffffffffffffffffffffff1663150b7a026113d8610e86565b8685856040518563ffffffff1660e01b81526004016113fa94939291906129bd565b6020604051808303816000875af192505050801561143657506040513d601f19601f820116820180604052508101906114339190612a1e565b60015b6114ba573d8060008114611466576040519150601f19603f3d011682016040523d82523d6000602084013e61146b565b606091505b5060008151036114b257836040517f64a0ae920000000000000000000000000000000000000000000000000000000081526004016114a99190612168565b60405180910390fd5b805181602001fd5b63150b7a0260e01b7bffffffffffffffffffffffffffffffffffffffffffffffffffffffff1916817bffffffffffffffffffffffffffffffffffffffffffffffffffffffff19161461154357836040517f64a0ae9200000000000000000000000000000000000000000000000000000000815260040161153a9190612168565b60405180910390fd5b505b50505050565b606061155682610dc1565b5060006007600084815260200190815260200160002080546115779061269f565b80601f01602080910402602001604051908101604052809291908181526020018280546115a39061269f565b80156115f05780601f106115c5576101008083540402835291602001916115f0565b820191906000526020600020905b8154815290600101906020018083116115d357829003601f168201915b505050505090506000611601611a7e565b90506000815103611616578192505050611659565b60008251111561164b578082604051602001611633929190612a87565b60405160208183030381529060405292505050611659565b61165484611a95565b925050505b919050565b8060076000848152602001908152602001600020908161167e9190612c57565b507ff8e1a15aba9398e019f0b49df1a4fde98ee17ae345cb5f6b5e2c27f5033e8ce7826040516116ae91906122f4565b60405180910390a15050565b60007f80ac58cd000000000000000000000000000000000000000000000000000000007bffffffffffffffffffffffffffffffffffffffffffffffffffffffff1916827bffffffffffffffffffffffffffffffffffffffffffffffffffffffff1916148061178557507f5b5e139f000000000000000000000000000000000000000000000000000000007bffffffffffffffffffffffffffffffffffffffffffffffffffffffff1916827bffffffffffffffffffffffffffffffffffffffffffffffffffffffff1916145b80611795575061179482611afe565b5b9050919050565b60006002600083815260200190815260200160002060009054906101000a900473ffffffffffffffffffffffffffffffffffffffff169050919050565b80806118125750600073ffffffffffffffffffffffffffffffffffffffff168273ffffffffffffffffffffffffffffffffffffffff1614155b1561194657600061182284610dc1565b9050600073ffffffffffffffffffffffffffffffffffffffff168373ffffffffffffffffffffffffffffffffffffffff161415801561188d57508273ffffffffffffffffffffffffffffffffffffffff168173ffffffffffffffffffffffffffffffffffffffff1614155b80156118a0575061189e8184610c46565b155b156118e257826040517fa9fbf51f0000000000000000000000000000000000000000000000000000000081526004016118d99190612168565b60405180910390fd5b811561194457838573ffffffffffffffffffffffffffffffffffffffff168273ffffffffffffffffffffffffffffffffffffffff167f8c5be1e5ebec7d5bd14f71427d1e84f3dd0314c0f7b2291e5b200ac8c7c3b92560405160405180910390a45b505b836004600085815260200190815260200160002060006101000a81548173ffffffffffffffffffffffffffffffffffffffff021916908373ffffffffffffffffffffffffffffffffffffffff16021790555050505050565b6119a9838383611b68565b611a5d57600073ffffffffffffffffffffffffffffffffffffffff168373ffffffffffffffffffffffffffffffffffffffff1603611a1e57806040517f7e273289000000000000000000000000000000000000000000000000000000008152600401611a1591906122f4565b60405180910390fd5b81816040517f177e802f000000000000000000000000000000000000000000000000000000008152600401611a54929190612d29565b60405180910390fd5b505050565b611a6c8383611c29565b611a796000848484611394565b505050565b606060405180602001604052806000815250905090565b6060611aa082610dc1565b506000611aab611a7e565b90506000815111611acb5760405180602001604052806000815250611af6565b80611ad584611d22565b604051602001611ae6929190612a87565b6040516020818303038152906040525b915050919050565b60007f01ffc9a7000000000000000000000000000000000000000000000000000000007bffffffffffffffffffffffffffffffffffffffffffffffffffffffff1916827bffffffffffffffffffffffffffffffffffffffffffffffffffffffff1916149050919050565b60008073ffffffffffffffffffffffffffffffffffffffff168373ffffffffffffffffffffffffffffffffffffffff1614158015611c2057508273ffffffffffffffffffffffffffffffffffffffff168473ffffffffffffffffffffffffffffffffffffffff161480611be15750611be08484610c46565b5b80611c1f57508273ffffffffffffffffffffffffffffffffffffffff16611c0783610e49565b73ffffffffffffffffffffffffffffffffffffffff16145b5b90509392505050565b600073ffffffffffffffffffffffffffffffffffffffff168273ffffffffffffffffffffffffffffffffffffffff1603611c9b5760006040517f64a0ae92000000000000000000000000000000000000000000000000000000008152600401611c929190612168565b60405180910390fd5b6000611ca983836000610ea0565b9050600073ffffffffffffffffffffffffffffffffffffffff168173ffffffffffffffffffffffffffffffffffffffff1614611d1d5760006040517f73c6ac6e000000000000000000000000000000000000000000000000000000008152600401611d149190612168565b60405180910390fd5b505050565b606060006001611d3184611df0565b01905060008167ffffffffffffffff811115611d5057611d4f612385565b5b6040519080825280601f01601f191660200182016040528015611d825781602001600182028036833780820191505090505b509050600082602001820190505b600115611de5578080600190039150507f3031323334353637383961626364656600000000000000000000000000000000600a86061a8153600a8581611dd957611dd8612d52565b5b04945060008503611d90575b819350505050919050565b600080600090507a184f03e93ff9f4daa797ed6e38ed64bf6a1f0100000000000000008310611e4e577a184f03e93ff9f4daa797ed6e38ed64bf6a1f0100000000000000008381611e4457611e43612d52565b5b0492506040810190505b6d04ee2d6d415b85acef81000000008310611e8b576d04ee2d6d415b85acef81000000008381611e8157611e80612d52565b5b0492506020810190505b662386f26fc100008310611eba57662386f26fc100008381611eb057611eaf612d52565b5b0492506010810190505b6305f5e1008310611ee3576305f5e1008381611ed957611ed8612d52565b5b0492506008810190505b6127108310611f08576127108381611efe57611efd612d52565b5b0492506004810190505b60648310611f2b5760648381611f2157611f20612d52565b5b0492506002810190505b600a8310611f3a576001810190505b80915050919050565b6000604051905090565b600080fd5b600080fd5b60007fffffffff0000000000000000000000000000000000000000000000000000000082169050919050565b611f8c81611f57565b8114611f9757600080fd5b50565b600081359050611fa981611f83565b92915050565b600060208284031215611fc557611fc4611f4d565b5b6000611fd384828501611f9a565b91505092915050565b60008115159050919050565b611ff181611fdc565b82525050565b600060208201905061200c6000830184611fe8565b92915050565b600081519050919050565b600082825260208201905092915050565b60005b8381101561204c578082015181840152602081019050612031565b60008484015250505050565b6000601f19601f8301169050919050565b600061207482612012565b61207e818561201d565b935061208e81856020860161202e565b61209781612058565b840191505092915050565b600060208201905081810360008301526120bc8184612069565b905092915050565b6000819050919050565b6120d7816120c4565b81146120e257600080fd5b50565b6000813590506120f4816120ce565b92915050565b6000602082840312156121105761210f611f4d565b5b600061211e848285016120e5565b91505092915050565b600073ffffffffffffffffffffffffffffffffffffffff82169050919050565b600061215282612127565b9050919050565b61216281612147565b82525050565b600060208201905061217d6000830184612159565b92915050565b61218c81612147565b811461219757600080fd5b50565b6000813590506121a981612183565b92915050565b600080604083850312156121c6576121c5611f4d565b5b60006121d48582860161219a565b92505060206121e5858286016120e5565b9150509250929050565b60008060006060848603121561220857612207611f4d565b5b60006122168682870161219a565b93505060206122278682870161219a565b9250506040612238868287016120e5565b9150509250925092565b60006020828403121561225857612257611f4d565b5b60006122668482850161219a565b91505092915050565b6000819050919050565b6122828161226f565b811461228d57600080fd5b50565b60008135905061229f81612279565b92915050565b600080604083850312156122bc576122bb611f4d565b5b60006122ca8582860161219a565b92505060206122db85828601612290565b9150509250929050565b6122ee816120c4565b82525050565b600060208201905061230960008301846122e5565b92915050565b61231881611fdc565b811461232357600080fd5b50565b6000813590506123358161230f565b92915050565b6000806040838503121561235257612351611f4d565b5b60006123608582860161219a565b925050602061237185828601612326565b9150509250929050565b600080fd5b600080fd5b7f4e487b7100000000000000000000000000000000000000000000000000000000600052604160045260246000fd5b6123bd82612058565b810181811067ffffffffffffffff821117156123dc576123db612385565b5b80604052505050565b60006123ef611f43565b90506123fb82826123b4565b919050565b600067ffffffffffffffff82111561241b5761241a612385565b5b61242482612058565b9050602081019050919050565b82818337600083830152505050565b600061245361244e84612400565b6123e5565b90508281526020810184848401111561246f5761246e612380565b5b61247a848285612431565b509392505050565b600082601f8301126124975761249661237b565b5b81356124a7848260208601612440565b91505092915050565b600080600080608085870312156124ca576124c9611f4d565b5b60006124d88782880161219a565b94505060206124e98782880161219a565b93505060406124fa878288016120e5565b925050606085013567ffffffffffffffff81111561251b5761251a611f52565b5b61252787828801612482565b91505092959194509250565b600067ffffffffffffffff82111561254e5761254d612385565b5b61255782612058565b9050602081019050919050565b600061257761257284612533565b6123e5565b90508281526020810184848401111561259357612592612380565b5b61259e848285612431565b509392505050565b600082601f8301126125bb576125ba61237b565b5b81356125cb848260208601612564565b91505092915050565b600080604083850312156125eb576125ea611f4d565b5b60006125f98582860161219a565b925050602083013567ffffffffffffffff81111561261a57612619611f52565b5b612626858286016125a6565b9150509250929050565b6000806040838503121561264757612646611f4d565b5b60006126558582860161219a565b92505060206126668582860161219a565b9150509250929050565b7f4e487b7100000000000000000000000000000000000000000000000000000000600052602260045260246000fd5b600060028204905060018216806126b757607f821691505b6020821081036126ca576126c9612670565b5b50919050565b60006060820190506126e56000830186612159565b6126f260208301856122e5565b6126ff6040830184612159565b949350505050565b7f43616e64696461746520616c7265616479206578697374730000000000000000600082015250565b600061273d60188361201d565b915061274882612707565b602082019050919050565b6000602082019050818103600083015261276c81612730565b9050919050565b7f4e487b7100000000000000000000000000000000000000000000000000000000600052601160045260246000fd5b60006127ad826120c4565b91507fffffffffffffffffffffffffffffffffffffffffffffffffffffffffffffffff82036127df576127de612773565b5b600182019050919050565b60008160601b9050919050565b6000612802826127ea565b9050919050565b6000612814826127f7565b9050919050565b61282c61282782612147565b612809565b82525050565b6000819050919050565b61284d6128488261226f565b612832565b82525050565b600061285f828661281b565b60148201915061286f828561281b565b60148201915061287f828461283c565b602082019150819050949350505050565b7f43616e64696461746520646f6573206e6f742065786973740000000000000000600082015250565b60006128c660188361201d565b91506128d182612890565b602082019050919050565b600060208201905081810360008301526128f5816128b9565b9050919050565b7f566f746520616c72656164792063617374656400000000000000000000000000600082015250565b600061293260138361201d565b915061293d826128fc565b602082019050919050565b6000602082019050818103600083015261296181612925565b9050919050565b600081519050919050565b600082825260208201905092915050565b600061298f82612968565b6129998185612973565b93506129a981856020860161202e565b6129b281612058565b840191505092915050565b60006080820190506129d26000830187612159565b6129df6020830186612159565b6129ec60408301856122e5565b81810360608301526129fe8184612984565b905095945050505050565b600081519050612a1881611f83565b92915050565b600060208284031215612a3457612a33611f4d565b5b6000612a4284828501612a09565b91505092915050565b600081905092915050565b6000612a6182612012565b612a6b8185612a4b565b9350612a7b81856020860161202e565b80840191505092915050565b6000612a938285612a56565b9150612a9f8284612a56565b91508190509392505050565b60008190508160005260206000209050919050565b60006020601f8301049050919050565b600082821b905092915050565b600060088302612b0d7fffffffffffffffffffffffffffffffffffffffffffffffffffffffffffffffff82612ad0565b612b178683612ad0565b95508019841693508086168417925050509392505050565b6000819050919050565b6000612b54612b4f612b4a846120c4565b612b2f565b6120c4565b9050919050565b6000819050919050565b612b6e83612b39565b612b82612b7a82612b5b565b848454612add565b825550505050565b600090565b612b97612b8a565b612ba2818484612b65565b505050565b5b81811015612bc657612bbb600082612b8f565b600181019050612ba8565b5050565b601f821115612c0b57612bdc81612aab565b612be584612ac0565b81016020851015612bf4578190505b612c08612c0085612ac0565b830182612ba7565b50505b505050565b600082821c905092915050565b6000612c2e60001984600802612c10565b1980831691505092915050565b6000612c478383612c1d565b9150826002028217905092915050565b612c6082612012565b67ffffffffffffffff811115612c7957612c78612385565b5b612c83825461269f565b612c8e828285612bca565b600060209050601f831160018114612cc15760008415612caf578287015190505b612cb98582612c3b565b865550612d21565b601f198416612ccf86612aab565b60005b82811015612cf757848901518255600182019150602085019450602081019050612cd2565b86831015612d145784890151612d10601f891682612c1d565b8355505b6001600288020188555050505b505050505050565b6000604082019050612d3e6000830185612159565b612d4b60208301846122e5565b9392505050565b7f4e487b7100000000000000000000000000000000000000000000000000000000600052601260045260246000fdfea2646970667358221220776b4cdae2ca49d3582c3b0b3130d3bd736f33e03262495a4774b410124f2a5564736f6c63430008180033",
  "linkReferences": {},
  "deployedLinkReferences": {}
}